:100040000A0D41746D656C393920286558746572E4
:100050006E65293A20000A0D41746D656C393920AE
:1000600028496E7465726E65293A20000A0D417444
:100070006D656C39392028454550524F4D293A203D
:10008000000A0D50726F6772616D6D657572204A5E
:10009000616371756573204C61627269652C204DD6
:1000A000617468696575205465737369657220654C
:1000B000742045726963204D6F726973736574743F
:1000C000652E000A0D44616E73206C6520636164C7
:1000D000726520647520636F7572732050726F6A49
:1000E00065742064652054534F2064752043454750
:1000F0004550206465204C696D6F696C6F752E00EA
:100100000A0D4D6F64696669636174696F6E20657D
:1001100074207375706572766973696F6E20706193
:10012000723A20416C61696E204368616D7061674D
:100130006E65206574205069657272652043686F32
:1001400075696E6172642E000A0D446562757420D3
:10015000486976657220313939382E204465726ECF
:100160006965726520526576204D61727320323068
:1001700030332E0A0D00203D20000A0D5175656CAC
:100180006C652076616C6575723F28686578293AE0
:1001900020000A0D5375636365732C000A0D5072BD
:1001A0006F626C656D652064652052414D2C0020A6
:1001B00056616C203D20000A000A0D5175656C6C7B
:1001C0006520616472657373653F20000A0D4E6F90
:1001D0007576656C2056616C657572203D20002C2B
:1001E000207665726966696572203D20000A0D56A9
:1001F0006F757320726F756C657A20656E20524141
:100200004D2E000A0D000A0D466F6E6374696F6E05
:1002100020706F75722072656D706C697220756EDA
:10022000652073656374696F6E206465206C61205E
:1002300052414D2065787465726E652E000A0D443A
:10024000656275743A000A0D46696E3A000A0D51EE
:1002500075656C2056616C6575723F2868657829F4
:100260003A20000A0D4F6E2072656D706C69206C2B
:1002700061206D656D6F6972652064653A200020AC
:100280006120000A0D4572726575722064276563EE
:100290007269747572653F20002E204F6B204327D2
:1002A00065737420666169742E0A000A0D517565C4
:1002B0006C206164726573736528686578293F20D6
:1002C000000A0D2020202020202030202031202056
:1002D00032202033202034202035202036202037A3
:1002E000202020203820203920204120204220209A
:1002F0004320204420204520204600203A20002092
:100300002D200020000A0A0D000A0D303A50303D21
:10031000002020343A5053573D002020383A5448AA
:10032000303D002020433A544D4F443D00202047AB
:100330003A54324D4F443D0020204B3A574D434FE5
:100340004E3D002020503A5243415032483D000A71
:100350000D313A50313D002020353A5350203D00B8
:100360002020393A544C303D002020443A54434F29
:100370004E3D002020483A5432434F4E3D0020204D
:100380004C3A53504452203D002020513A524341B0
:1003900050324C3D000A0D323A50323D002020369A
:1003A0003A4950203D002020413A5448313D002038
:1003B00020453A53434F4E3D002020493A5448329D
:1003C00020203D0020204D3A53505352203D000A3A
:1003D0000D333A50333D002020373A4945203D0047
:1003E0002020423A544C313D002020463A50434FA1
:1003F0004E3D0020204A3A544C3220203D0020201F
:100400004E3A53504352203D000A0A0A0D424945D4
:100410004E56454E55452044414E532041544D457E
:100420004C3939207631362E330A0D000A0D582901
:100430002061636365732065587465726E652E2054
:100440002020492920616363657320496E746572B9
:100450006E652E202020412920416363657320456D
:100460004550524F4D2E000A0D44292044554D5001
:10047000206C61206D656D6F6972652E204C29209E
:100480004C69726520756E20627974652E2020207B
:10049000205229206C697265206C65732052656753
:1004A0006973747265732E000A0D46292046494C03
:1004B0004C206C61206D656D6F6972652E20452939
:1004C0002045637269726520756E20627974652EAD
:1004D00020204D29204D6F646966206C6573207261
:1004E00065676973747265732E000A0D5429205470
:1004F00072616E7366657220656E2052414D2E20CA
:10050000472920476F20656E2052414D2E20202024
:100510002020202050292050726F6772616D206C5E
:100520006120464C415348206578742E000A0D53D3
:1005300029207465737473205370656369617578DD
:100540002E2020482920416666696368652063651E
:10055000204D656E752E204F29204F7074696F6E87
:100560002072657365742E000A0D5129205175693A
:100570003F0A000A0A0D312920496E6372656D65D4
:100580006E74207375722050312E20203229205035
:100590003320766572732050312E20204B29204B5A
:1005A0006579207061642E000A0D57292057617407
:1005B000636820446F672054696D65722E20202087
:1005C000432920436F6D6D207375722050332E3296
:1005D0002076657273205049432E0A000A0D4E6F33
:1005E00074653A506F7572207574696C69736572C1
:1005F000206C65204B657970616420494E20503332
:100600002E333D302073757220756E205245534550
:10061000542E0A000A0A0D4F7074696F6E73206CB5
:100620006F7273206427756E2052455345542E0017
:100630000A0D5369206C27616472657373652030FD
:1006400037464620647520454550524F4D20646121
:10065000746120696E7465726E65206573743A000A
:100660000A0D3D20307835352C206C61204C4544F6
:1006700020666C6173682073757220756E20506FF0
:10068000776572205570206D6169732070617320E9
:100690007375722052455345542E000A0D3D20308B
:1006A0007841412C206C61204C4544206E652066C9
:1006B0006C61736820706C7573206A616D61697319
:1006C0002E000A0D3D20307835412C206F6E2073AE
:1006D0006F7274206C612076616C65757220646540
:1006E000206C27616472657373652030374645203E
:1006F000647520454550524F4D2073757220706FC0
:10070000727420312E000A0D3D20307841352C20A6
:1007100053757220756E205245534554206F6E20DC
:100720004A756D7020646972656374656D656E7479
:100730002061203078383030302E000A0D64696630
:10074000666572656E742C206C61204C4544206691
:100750006C61736820746F756A6F7572732E000A0E
:100760000D5369206C27616472203078374644202D
:100770003D20307846442074656D707320544831B4
:1007800020706F757220706F727420736572696566
:100790002061203139323030206264732E000A0D1E
:1007A00028766974657373653A46413D3936303051
:1007B0002C2046343D343830302C2045383D3234FE
:1007C00030302065742044303D31323030290A0DFC
:1007D000000A0D5175656C207265676973747265E6
:1007E00020766F756C657A2D766F7573206D6F64EA
:1007F00069666965723F20000A0D2020000A0D4ECF
:100800006F7576656C2076616C6575723F000A0ABB
:100810000D436F6D6D756E69636174696F6E2073E2
:100820007572206C69676E6520434F4D200A0A0D72
:10083000000A0D54657374206475205761746368F1
:1008400020446F672054696D657220000A0D507254
:10085000657373657220756E6520746F7563686566
:100860002073696E6F6E2052455345542073652086
:1008700070726F64756972612064616E73203220DA
:100880007365636F6E646573212000202044656C7E
:100890006169204F4B2E000A0A0D5472616E736617
:1008A0006572206475206669636869657220656E8B
:1008B0002052414D2E000A0D2844616E7320505283
:1008C0004F434F4D4D3A206170707579657A2073B2
:1008D000757220506755702065742063686F697366
:1008E0006973736572206C65206D6F646520415378
:1008F00043494929000D0A45727265757220646585
:1009000020273A2720466169746520757520524575
:10091000534554000A0D5472616E736665727420FB
:10092000656E20636F757273000A0D0A0D45727251
:10093000657572207472616E736665727420646589
:1009400020666963686965722E2E2E000A0D417556
:10095000746F7572206465206C27616472657373AF
:10096000653A20002C2061206C61206C69676E65FF
:100970003A20000A0D4170707579657A207375729E
:100980002052455345542E000A0D4572726575720A
:1009900020636865636B73756D2C204661697465AF
:1009A00020756E205245534554000D0A45727265FC
:1009B00075722066696E206465206C69676E6500DB
:1009C0000A0D50726F6772616D6D6174696F6E2090
:1009D0007465726D696E6565000A0A0D4F6E20744C
:1009E00072616E73666572206C612052414D2065A4
:1009F0006E20466C6173682E002043276573742057
:100A0000666169742C2064652030303030206120AC
:100A1000000A0D46696E2E002020204269656E7620
:100A2000656E75652064616E7320202020204174FE
:100A30006D656C3939207665723A31362E33202057
:100A40002020202054534F204C696D6F696C6F75C6
:100A5000202020202049415220442E422E20412E89
:0A0A6000432E20502E432E2061008B
:1014ED007508FA750900E4F5457590FF786AF67888
:1014FD0064F6F546F53AF5447866761E786BF6088F
:10150D00760AD2D17867F6087680121D96121B5591
:10151D00786AE6700C7590FEFF7EF8121818121797
:10152D003F7BFF7A007940121ADA20B30478657692
:10153D0001E546653A6028121D0E8F491212FCE531
:10154D004A70087BFF7A0079408011E54A7BFFB431
:10155D0001067A00795680047A00796C121ADA78CD
:10156D0065E6600630B30312109F786AE670C20517
:10157D004D08E6FE08E6FF121DB2E54D30E704D238
:10158D009080AEC290E54D547F70A67866E66003FC
:0C159D0016809E786B76000876FA809528
:021998008F5E60
:10199A00785F7C007D007BFF7A0A79687E007F028F
:1019AA00120E79E55EC4540FFFC3940A50067430D0
:1019BA002FFF800474372FFF8F5F7B007A00795FD7
:1019CA00121ADAE55E540FFFC3940A500674302FD8
:1019DA00FF800474372FFF8F5F7B007A00795F02E4
:0219EA001ADA07
:031B1500121D0E90
:101B1800E4FED3EF648094B95006EF24D0FE802A07
:101B2800C3EF648094C1400ED3EF648094DA50060A
:101B3800EF24C9FE8014C3EF648094E1400CD3EF16
:0C1B4800648094FA5004EF24A9FEAF065C
:011B5400226E
:101C72007BFF7A007981121ADA7BFF7A0079C3122C
:101C82001ADA7BFF7A017900121ADA7BFF7A01797C
:041C920048021ADA10
:101D4600121D0E121B188F5EE55EC454F0F55E126E
:0A1D56001D0E121B18EF425EAF5E77
:011D60002260
:041DAE007F067E002E
:101DB200D3EF9400EE94004007EF1F70F31E80F003
:011DC20022FE
:061CD4008E568F578D585B
:101CDA00E4F559121D2AAF57AE56121CBAEFB55881
:061CEA0003755901AF591A
:011CF00022D1
:1015A900E4F54EF54F121C0F7BFF7A017976121A7A
:1015B900DAAF4CAE4B121CBA1219987BFF7A01793B
:1015C9007A121ADAE4F54EF54F121D0E121B18EFB6
:1015D9003395E0F54E8F4FE54FC4F8540FC868F5C1
:1015E9004FE54EC454F048F54E121D0E121B18EF6C
:1015F9003395E0FEEF424FEE424EAD4FAF4CAE4B4E
:10160900121CD4EF7BFF60067A01799280047A017B
:10161900799C121ADA7BFF7A0179AF121ADAAF4C88
:10162900AE4B121CBA1219987BFF7A0179B7021ACC
:01163900DAD6
:101A8D007BFF7A0179B9121ADA121D468F4E7BFF50
:101A9D007A017976121ADAA84EE6FF1219987BFFB1
:101AAD007A0179CC121ADA121D46A84EA6077BFFD1
:101ABD007A0179DF121ADAA84EE6FF1219987BFF28
:071ACD007A0179B7021ADA71
:1018DE00E54A640A600C7BFF7A0179ED121ADA127E
:1018EE001AD4E4F5A8F5B8F5F0F5D0F583F58275C0
:1018FE0090FF75B0FFF589F5C9F588F5C8F58CF53B
:10190E008AF58DF58BF5CDF5CCF598F5CAF5CB7539
:10191E009602F586F5AAF58775D504758109FBFA49
:0E192E007908F53FF540894175F080020EE51D
:1012FC00E549C39461400DE549D3947A500674E0F6
:10130C002549F549E54924CE70030213ED04B428B0
:10131C000040030213FC90133075F003A4C5832521
:10132C00F0C583730213EA0213FC0213FC0213FCD4
:10133C000213FC0213FC0213FC0213FC0213FC024A
:10134C0013FC0213FC0213FC0213FC0213FC021329
:10135C00FC0213FC0213B00213FC0213F00213B7CD
:10136C000213D30213E40213E10213C20213AC0200
:10137C0013FC0213F90213B70213C70213FC021376
:10138C00B40213E70213F60213C50213D00213DEE4
:10139C000213FC0213FC0213F30213A8E4F54A2215
:1013AC00754A0122754A02220219ECE54AB401037E
:1013BC0002193C02163A021B558006120F2A120C17
:1013CC000B020F2A021D61E54AB40103021A8D02B9
:1013DC0015A9020A6A0218DE0213FD0211E1021DB0
:1013EC00D7021DC3121B94121C4A021C72754503B2
:0113FC0022CE
:1013FD00E4F554F5557BFF7A027906121ADA7BFF74
:10140D007A02793D121ADA121C0F854B4E854C4F1C
:10141D007BFF7A027946121ADA121C0F854B508522
:10142D004C517BFF7A02794D121ADAE4F554F555D9
:10143D00121D0E121B18EF3395E0F5548F55E5551F
:10144D00C4F8540FC868F555E554C454F048F55424
:10145D00121D0E121B18EF3395E0FEEF4255EE42B2
:10146D00547BFF7A027963121ADAE54EFF1219984E
:10147D00AF4F1219987BFF7A02797F121ADA854ED7
:10148D0052854F53D3E5539551E55295505035C381
:10149D00E553954FE552954E402AAD55AF53AE529B
:1014AD00121CD4EF70147BFF7A027983121ADAE5DD
:1014BD0052FF121998AF531219980553E553700244
:1014CD00055280C0E553155370021552E552FF12B7
:1014DD001998AF531219987BFF7A027999021ADA8B
:101D0E00E4FFE546653A60FA740A253AF8E6FF05FF
:0B1D1E003AE53AC394304003E4F53A84
:011D29002297
:101D9600759850758920438780758DFD758840D26A
:081DA600AFD2ACC299C2982231
:041CB6007FFF7E0727
:041CBA008F828E8304
:101CBE00E54A7004E0FD800BAF96EF4408F596E020
:051CCE00FD8F96AF053B
:011CD30022EE
:03002300021BD3EA
:101BD300C0E0C0D075D000C000309815740A254607
:101BE300F8A6990546E546C394304003754600C2FE
:101BF3009830991178697600E5446007F599754442
:0C1C0300007601C299D000D0D0D0E032B1
:10173F00121DE8E4F54EE54E900A1893FFE54EFBB7
:10174F007A00E4FDFC121887054EE54ED394134042
:10175F00E5E4F54EE54E900A547D0312187E054ED2
:10176F00E54ED3941340EDE4F54EE54E900A407DDF
:10177F000212187E054EE54ED3941340EDE4F54E5C
:10178F00E54E900A2C93FFE54EFB7A007D017C001D
:0C179F00121887054EE54ED3941340E469
:0117AB00221B
:0C1D7C00121D88853E82853D837430F086
:0D1D88007FE07E2EEF1F70011EEF4E70F702
:011D9500222B
:101C96007F087E07854882854783E05480FD33951B
:0F1CA600E04D600BEF4E6007EF1F70E81E80E50A
:011CB500220C
:10181800AD07AC068C3D8D3EED2401F548E43CF562
:1018280047ED2402F543E43CF542121D7C853E82D7
:10183800853D837430F0121D7C121C96853E82858E
:101848003D837401F0121C96853E82853D83743871
:10185800F0121C96853E82853D837408F0121C9612
:10186800853E82853D83740CF0121C96853E8285E8
:061878003D837406F0221E
:09187E0093FFE54EFB7A007C00AB
:02188700A907AF
:10188900AE04AF05EC702CEF1460121460171460ED
:101899001C2403701E754F007550808016754F000B
:1018A9007550C0800E754F007550948006754F00B5
:1018B9007550D4EB2550F550EA354FF54F121C966B
:1018C900853E82853D83E550F0121C9685438285CD
:0418D9004283E9F06D
:0118DD0022E8
:0D1DE800121C96853E82853D837401F02219
:101C0F007BFF7A0279AB121ADA121B15EF3395E0CC
:101C1F00F54B8F4CE4FDE54CC4F8540FC868F54CF8
:101C2F00E54BC454F048F54B121B15EF3395E0FE0E
:0A1C3F00EF424CEE424B0DBD03DCFA
:011C49002278
:10163A00121C0FE54924B46070240860030216C91D
:10164A007BFF7A0279C1121ADA121AD4854B4F85B6
:10165A004C50E546653A704BE54FFF121998AF506A
:10166A001219987BFF7A0279FB121ADAE4F54EAF67
:10167A0050AE4F121CBA1219980550E55070020567
:10168A004FE54E7BFFB407067A0279FF80047A039E
:10169A007903121ADA054EE54EC3941040D1121A94
:1016AA00D480AF121D0E8F49227BFF7A0179761200
:0F16BA001ADAAF4CAE4B121CBA121998121AD48E
:0116C90022FE
:10193C007BFF7A037905121ADAE4F54FF550F5516D
:10194C00C3E55094015044AF4F1219987BFF7A02B3
:10195C0079FB121ADAE4F54EA84FE6FF1219980536
:10196C0051E55170020550054FE54E7BFFB407065B
:10197C007A0279FF80047A037903121ADA054EE5AC
:0B198C004EC3941040D2121AD480B554
:01199700222D
:100F2A007BFF7A037909121ADAAF801219987BFFCC
:100F3A007A037911121ADAAFD01219987BFF7A0361
:100F4A00791A121ADAAF8C1219987BFF7A0379236D
:100F5A00121ADAAF891219987BFF7A03792D121ABD
:100F6A00DAAFC91219987BFF7A037938121ADAAF05
:100F7A00961219987BFF7A037943121ADAAFCB12C9
:100F8A0019987BFF7A03794F121ADAAF90121998DF
:100F9A007BFF7A037957121ADAAF811219987BFF0D
:100FAA007A037960121ADAAF8A1219987BFF7A03E8
:100FBA007969121ADAAF881219987BFF7A03797362
:100FCA00121ADAAFC81219987BFF7A03797E121ABD
:100FDA00DAAF861219987BFF7A037989121ADAAF87
:100FEA00CA1219987BFF7A037995121ADAAFA012FE
:100FFA0019987BFF7A03799D121ADAAFB8121998F9
:10100A007BFF7A0379A6121ADAAF8D1219987BFF41
:10101A007A0379AF121ADAAF981219987BFF7A031A
:10102A0079B9121ADAAFCD1219987BFF7A0379C40B
:10103A00121ADAAFAA1219987BFF7A0379CF121A19
:10104A00DAAFB01219987BFF7A0379D7121ADAAF9E
:10105A00A81219987BFF7A0379E0121ADAAF8B1279
:10106A0019987BFF7A0379E9121ADAAF871219986D
:10107A007BFF7A0379F3121ADAAFCC1219987BFF45
:10108A007A0379FE121ADAAFD51219987BFF7A021F
:05109A007903021ADADF
:101B55007BFF7A047909121ADA7BFF7A04792C1251
:101B65001ADA7BFF7A047967121ADA7BFF7A04792D
:101B7500A8121ADA7BFF7A0479EA121ADA7BFF7A5D
:0F1B850005792D121ADA7BFF7A057968021ADAD0
:101D61007BFF7A057973121ADA7BFF7A0579A8125B
:0B1D71001ADA7BFF7A0579DC021ADA2F
:1019EC007BFF7A067914121ADA7BFF7A06793012A9
:1019FC001ADA7BFF7A067960121ADA7BFF7A06799B
:101A0C009B121ADA7BFF7A0679C2121ADA7BFF7AFA
:101A1C00077906121ADA7BFF7A07793B121ADA7BFE
:101A2C00FF7A07795F121ADA7BFF7A07799E021A1E
:011A3C00DACF
:100C0B007BFF7A0779D1121ADA121D0E8F49E5494B
:100C1B00C39461400DE549D3947A500674E025499D
:100C2B00F5497F017E00121DB2E549120F040C8BB2
:100C3B00300C96310CA1320CAC330CCD340D253568
:100C4B000CB7360CC2370CD8380CE3390CEE410C10
:100C5B00F9420D04430D1A440D0F450D30460D514D
:100C6B00470D5C480D3B490D464A0D674B0D724CC9
:100C7B000D7D4D0D884E0D93500D9E5100000DA80E
:100C8B0085804EAF4E121CF18F802285904EAF4E59
:100C9B00121CF18F902285A04EAF4E121CF18FA02B
:100CAB002285B04EAF4E121CF18FB02285B84EAFDD
:100CBB004E121CF18FB82285A84EAF4E121CF18F2D
:100CCB00A82285D04EAF4E121CF18FD022858C4EB0
:100CDB00AF4E121CF18F8C22858A4EAF4E121CF137
:100CEB008F8A22858D4EAF4E121CF18F8D22858BF4
:100CFB004EAF4E121CF18F8B2285894EAF4E121CBC
:100D0B00F18F892285984EAF4E121CF18F98228558
:100D1B00884EAF4E121CF18F882285814EAF4E123A
:100D2B001CF18F812285874EAF4E121CF18F8722CB
:100D3B0085CD4EAF4E121CF18FCD2285CC4EAF4ED2
:100D4B00121CF18FCC2285C94EAF4E121CF18FC9EC
:100D5B002285C84EAF4E121CF18FC82285964EAF1E
:100D6B004E121CF18F962285864EAF4E121CF18FC0
:100D7B00862285AA4EAF4E121CF18FAA2285D54E24
:100D8B00AF4E121CF18FD52285CB4EAF4E121CF1FC
:0D0D9B008FCB2285CA4EAF4E121CF18FCABD
:010DA8002228
:101CF1008F4F7BFF7A0779F8121ADAAF4F121998D2
:0D1D01007BFF7A0779FD121ADA121D4622C7
:101A3D00E4786AF6754A02121CB6BF550EE587307A
:101A4D00E4055387EF8004786A7601121CB6BFAAAD
:101A5D0004786A7601121CB6BF5A0B7FFE121CBAAF
:101A6D008F90786A7601121CB6BFA510E58730E419
:101A7D00055387EF8006754A0A1218DEE4F54A22EF
:041D2A008F828E8393
:101D2E00E54A7003EDF022AF96EF4418F596EDF00C
:071D3E00E59630E1FB8F96F2
:011D4500227B
:101B94007590C0D28CD2B27BFF7A08790E121ADA11
:101BA400E546653A601C121D0E8F49E549B40D07E0
:101BB4007F0A121DF5800BAF491216CAE54944F09D
:0F1BC400F59020B2DB1217AC8F49121DF580D1BE
:1017AC007D017F037E00121DB230B2011DED64017C
:1017BC0070577F06FE121DB220B202E4FD121DAE60
:1017CC0030B2020D0D121DAE30B20474042DFD1298
:1017DC001DAE30B20474082DFD121DAE30B204746F
:1017EC00102DFD121DAE30B20474202DFD121DAE55
:1017FC0030B20474402DFD121DAE30B20474802D35
:0B180C00FD121DAE20B202E4FDAF058E
:0118170022AE
:1016CA00AD07121DAEC2B2121DAEED30E004D2B2A9
:1016DA008002C2B2121DAEED30E104D2B28002C263
:1016EA00B2121DAEED30E204D2B28002C2B2121DB5
:1016FA00AEED30E304D2B28002C2B2121DAEED30BA
:10170A00E404D2B28002C2B2121DAEED30E504D2B8
:10171A00B28002C2B2121DAEED30E604D2B280022D
:10172A00C2B2121DAEED30E704D2B28002C2B212CA
:05173A001DAED2B22239
:101DD7000590E59044C3F5B07F107E27121DB280B1
:011DE700EF0C
:101DC300E5B025E025E054F0FFE5B01313540F4FC1
:041DD300F59080EC1B
:101C4A007BFF7A087931121ADA7596E37BFF7A08F4
:101C5A00794C121ADA121D0E8F497596E37BFF7AB8
:081C6A0008798B121ADA80E4FC
:0C1DF5007869E6640160F98F44D29922FD
:061AD4007BFF7A0279039A
:061ADA008B618A62896342
:101AE0007F017E007869E6640160F9AB61AA62A9B2
:101AF00063120E9FF544D299AB61AA62A9638F82EB
:101B00008E83120EB8600DF544E54470FC0FBF00E3
:041B1000010E80E45E
:011B140022AE
:10109F00850982850883E0540FF54EB40506E545B2
:1010AF0070020545E54EB40A07E545B40102054552
:1010BF00E54E7007E545B402020545E5456403704A
:1010CF0032E54EC454F0FFE590540F4FF590E54EC6
:1010DF00540F2430FF7B137A007D027C0012188797
:1010EF00E54EC3940AE54E5004243080022437FFA6
:1010FF00121DF5E5456402702FE54E6404702975E5
:10110F009001786A76017D077FD07E07121DB2E5C8
:10111F009025E0F590DDF17D077FD07E07121DB29F
:10112F00E590C313F590DDF1E5456402600302110C
:10113F00E0E54E640860030211E020B3FD30B3FD1B
:10114F007F471216CA7FC87E00121DB27F54121637
:10115F00CA7FC87E00121DB27F4D1216CA7FC87E8D
:10116F0000121DB27F451216CA7FC87E00121DB233
:10117F007F421216CA7FC87E00121DB28509828572
:10118F000883E0540F70107F351216CA7FC87E0097
:10119F00121DB27F35800E7F411216CA7FC87E00A6
:1011AF00121DB27F411216CA7FC87E00121DB27F78
:1011BF00531216CA7FC87E00121DB2850982850898
:1011CF0083E0540FF59020B3FD30B30302114F802D
:0111DF00F817
:0111E00022EC
:100A6A00E4F558F55B755C01F55DF53BF53CF54A37
:100A7A007BFF7A087997121ADA7BFF7A0879B6121D
:100A8A001ADA121D0EEF643A600B7BFF7A0879F5C9
:100A9A00121ADA80FE7BFF7A097914121ADAE558FB
:100AAA006003020C00121D468F5685565D121D0EFC
:100ABA00121B18EF3395E0F5598F5AE4FDE55AC435
:100ACA00F8540FC868F55AE559C454F048F5591254
:100ADA001D0E121B18EF3395E0FEEF425AEE4259F3
:100AEA000DBD03D9E559255DF55D255AF55D786497
:100AFA00E6700DC3E55A9440E5599400500D800004
:100B0A00E4255AF55A74803559F559121D46EF6095
:100B1A0003020BDDE556D3940040661556121D46B6
:100B2A00AC07EC255DF55DAD04AF5AAE59121D2A2E
:100B3A00AF5AAE59121CBAEF6C603C7BFF7A097946
:100B4A0029121ADA7BFF7A09794C121ADAE559FF67
:100B5A00121998AF5A1219987BFF7A097964121AF6
:100B6A00DAE55BFF121998AF5C1219987BFF7A09D4
:100B7A007973121ADA80FE055AE55A709705598078
:100B8A0093D3E55A953CE559953B400685593B85F3
:100B9A005A3C7F2E121DF5121D468F57E557255DCB
:100BAA00F55D600B7BFF7A097988121ADA80FE12EA
:100BBA001D0E8F57E557640D60097BFF7A0979AAE4
:100BCA00121ADA121D0E8F57055CE55C7002055B7E
:100BDA00020AA8121D46EF3395E0FEEFF44E70109C
:100BEA007F207E4E121DB27BFF7A0979C0121ADA73
:100BFA00755801020AA87F307E75121DB2853A46E1
:010C0A0022C7
:1011E100E4F54EF54FF550F551F554F55578647623
:1011F10001120A6A7BFF7A0979D9121ADAE4253CCD
:10120100FFE53B3480FEC3E54F9FE54E9E50749051
:10121100555574AAF0902AAA7455F090555574A0AA
:10122100F0E4F552F553C3E553786896E552189604
:10123100502BE4254FCFE54E3480CF2553CF355287
:10124100FE121CBAAD07E54F2553FFE54E3552FEA0
:10125100121D2A0553E55370CD055280C97552758B
:10126100755330E553155370021552E553455270CD
:10127100F27867E6FE08E6254FF54FEE354EF54E5E
:101281000211FEE4F552F553E4253CFFE53B3480C1
:10129100FED3E5539FE5529E5037E42553FFE552B7
:1012A1003480FE121CBAAC07AF53AE52121CBAEF17
:1012B1006C60147BFF7A027983121ADAE552FF120D
:1012C1001998AF531219980553E55370BB05528015
:1012D100B77BFF7A0979F9121ADAE55315537002CF
:1012E1001552E552FF121998AF531219987BFF7AE4
:0A12F1000A7911121ADAE47864F6A3
:0112FB0022D0
:03000000021E01DC
:0C1E0100787FE4F6D8FD75816C0214EDCA
:100DA900E709F608DFFA8046E709F208DFFA803E2C
:100DB90088828C83E709F0A3DFFA8032E309F60819
:100DC900DFFA8078E309F208DFFA807088828C8381
:100DD900E309F0A3DFFA806489828A83E0A3F60835
:100DE900DFFA805889828A83E0A3F208DFFA804C0F
:100DF90080D280FA80C680D4806980F280338010E6
:100E090080A680EA809A80A880DA80E280CA80334E
:100E190089828A83ECFAE493A3C8C582C8CCC583C6
:100E2900CCF0A3C8C582C8CCC583CCDFE9DEE78096
:100E39000D89828A83E493A3F608DFF9ECFAA9F015
:100E4900EDFB2289828A83ECFAE0A3C8C582C8CC6B
:100E5900C583CCF0A3C8C582C8CCC583CCDFEADE84
:100E6900E880DB89828A83E493A3F208DFF980CCE6
:100E790088F0EF60010E4E60C388F0ED2402B404DF
:100E89000050B9F582EB2402B4040050AF23234586
:060E99008223900DF973A5
:100E9F00BB010689828A83E0225002E722BBFE0251
:090EAF00E32289828A83E4932284
:100EB800BB010CE58229F582E5833AF583E02250EF
:100EC80006E92582F8E622BBFE06E92582F8E22239
:0D0ED800E58229F582E5833AF583E4932253
:100EE500BB010A89828A83F0E5F0A3F0225006F758
:0F0EF50009A7F01922BBFE06F3E5F009F3192255
:100F0400D083D082F8E4937012740193700DA3A37C
:100F140093F8740193F5828883E473740293686090
:060F2400EFA3A3A380DF90
:00000001FF
