:030000000200718A
:10002300020D09020FDE120080B9000302006BE427
:100033009090FF780979018002F0A3D8FCD9FA9057
:100043009107AA82AB83900083781E79018015E41F
:1000530093A3AC82AD838A828B83F0A3AA82AB8302
:100063008C828D83D8E9D9E7120E5312102475D0F0
:10007300007581BF7510FF75119002002979012267
:1000830007257800380C01020600401454020000D2
:1000930000FFFFFFFF00000000FFFF0000C008C3D8
:1000A300E096F50808A3E096420808A3E096420804
:1000B30008A3E0964208A2D265D033E5087001D3C5
:1000C300D00822E4CFC0E0E4CEC0E0E4CDC0E0E459
:1000D300CCC0E075F020C3E633F608E633F608E655
:1000E30033F608E633F6181818EC33FCED33FDEE5F
:1000F30033FEEF33FFC3EC9709ED9709EE9709EF52
:1001030097191919400FFFEC97FC09ED97FD09EEBC
:1001130097FE191906D5F0BEECF709EDF709EEF7CE
:1001230009EFF7191919D0E0FCD0E0FDD0E0FED0BB
:10013300E0FF22E4C396F608E496F608E496F60890
:10014300E496F622E026F608A3E036F608A3E036A6
:10015300F608A3E036F622E056F608A3E056F608C2
:10016300A3E056F608A3E056F622E0F608A3E0F66D
:1001730008A3E0F608A3E0F622E6F008A3E6F008F9
:10018300A3E6F008A3E6F022CAC0E0E6F0A308DA8B
:10019300FAD0E0FA22CAC0E0E0A3C582CCC582C58A
:1001A30083CDC583F0A3C582CCC582C583CDC5836A
:1001B300DAE6D0E0CA22251010AF08F51040021588
:1001C300118008F51040021511D2AF22C0D02510BE
:1001D30010AF08F510500205118008F51050020504
:1001E30011D2AFD0D0222510F58210AF08F5104000
:1001F3000215118008F51040021511D2AF85118345
:10020300222510F582E43511F58322E4732510C508
:1002130082C0E0E51134FFC583C0E0E510C39582D9
:1002230024F910AF08858311858210800885831116
:10023300858210D2AFCEF0A3E520F0A37808E608BC
:10024300F0A3DEFAEFF0A3E58124FBF8E608F0A3C0
:10025300E608F0A30808E608F0A3E608F0A3158172
:100263001581D0E0FED0E0F815811581E8C0E0EEFD
:10027300C0E022851183851082E0A3FEE0A3F52070
:100283007808E0A3F608DFFAE0A3FFE0A3C0E0E00C
:10029300A3C0E0E0A3C0E0E0A3C0E010AF08858204
:1002A300108583118008858210858311D2AFD08396
:1002B300D08222740280027401C0E0F4041201E9C6
:1002C300D0E012018B227404800474028000CCC03D
:1002D300E0EDC0E0E510C39CCCAD1150011D10AFA3
:1002E300068C108D1180068C108D11D2AF120198DF
:1002F300D0E0FDD0E0FC2274F112021074E612018A
:10030300B97403120204EAF0A3EBF07401120204BD
:10031300ECF0A3EDF07429120204E0F8A3E0F97401
:10032300291202041206F5742B120204E0F8A3E06A
:10033300F9742B120204E8F0A3E980247401120279
:100343000412069712020412069F12020E7401127F
:100353000204EAF0A3EBF07429120204EEF0A3EF17
:10036300F074291202041206ACF9700E7A007B00B5
:10037300741A1201CF7F080202767429120204E074
:100383002401FEA3E03400FF74256970AF742912C1
:100393000204EEF0A3EFF074291202041206AC85F6
:1003A3001082851183F07429120204E02401F8A35A
:1003B300E03400F974291202041206F585108285CF
:1003C3001183E024DB700302068724CD700302054A
:1003D300E424F5602C14606224FB605E24FA70034D
:1003E3000205E41470030205FF24FD7003020626D0
:1003F30024FE70030205E424FD70030205E40203F6
:1004030064742B1202041206B9FA12068C12020447
:10041300E0FBA3E0F5838B821206F5EAF97401127F
:10042300020412069712020412069F12020E7401AE
:10043300120204EAF0A3EB020363742B1202041208
:1004430006ACF8A3E01206D13395E0F50AF50B7478
:100453002B1202041206E41202041206F290911CFB
:1004630078081200A0401D792D74011202041206AF
:100473009712020412069F12020E7401120204EA7A
:10048300F0A3EBF0851082851183E0646F7009742B
:100493000B12020474088017E04420647860097426
:1004A3000B120204740A8007740B1202047410F016
:1004B300A3E4F0A3F0A3F07A0B7B0074051202040B
:1004C300780812017C851082851183E064647023AF
:1004D30090911C78081200A0401974051202047848
:1004E3000812016D780812013674051202047808A7
:1004F30012017CEA24FFFCEB34FFFD1AFB740512A6
:100503000204780C12016D740B12020478081201B4
:100513006D780C79081200C6E5082430FEC3943ABE
:10052300400B851082851183E024AF2EFE740F12D9
:100533000204E5822CF8E5833DF9740912020412E2
:1005430006F5740912020412069FEEF074051202F6
:1005530004780C12016D740B120204780812016DF9
:10056300780C79081200C67405120204780C120183
:100573007C7405120204780812016DE508450945EB
:100583000A450B6011C3EA9401EB9400A2D265D033
:100593003340030204F6740BC39AFEE49BFF740911
:1005A3001202041206D57401120204E0FAA3E0FB5E
:1005B3008028850882850983E0F9740312020412F6
:1005C300069F12020E850882850983A3858208850A
:1005D3008309EE24FF1EEF34FFFFEE4F70D40204B5
:1005E30031742B1202041206C31202041206E4121F
:1005F30002041206FBE8F0A3E9020486742B12023C
:10060300041206C31202041206E41202041206F2D2
:10061300909120780812015A85108285118374788D
:10062300020486742B1202041206B9F508A3E0F53E
:100633000912068C1202041206F2AA08AB09121060
:10064300088A0A8B0BAE0AAF0B7401120204E0FA9C
:10065300A3E0FB8028850882850983E0F9740312EF
:10066300020412069F12020E850882850983A38560
:100673008208858309EE24FF1EEF34FFFFEE4F70DF
:10068300D40204317925020420E82402F8E9340075
:10069300F9742B22E0FAA3E0FB7403221206A322CF
:1006A300E0F8A3E0F5838882221206B0221206B492
:1006B300221206A3E0221206DDF988828983E02252
:1006C3001206DD1206D1E4F50AF50B742B22F5832D
:1006D3008882E0F508A3E0F509221206B4F8A3E046
:1006E300221206B02402F8A3E03400F9742B22127C
:1006F30006FBE8F0A3E9F022E0FAA3E0F5838A829F
:100703002274F8120210EAFEEBFFEEFAEFFB120F6F
:10071300828E828F837400F0A374F8F08E828F83AD
:10072300E02401F8A3E03400F98E828F83A3A3E8C9
:10073300F0A3E9F08E828F83E02402F8A3E0340073
:10074300F98E828F83A3A3A3A3E8F0A3E9F08E829B
:100753008F83E02403F8A3E03400F98E828F83A310
:10076300A3A3A3A3A3E8F0A3E9F0EEFAEFFB120817
:1007730066EEFAEFFB7F0102027674F8120210EACA
:10078300FEEBFF8908EEFAEFFB120983A9088E82BC
:100793008F83A3A3A3A3E0FCA3E0FDEEFAEFFB1278
:1007A3000F867F0102027674F612021074FB1201A7
:1007B300B9EAFEEBFF890AEEFAEFFB120983850A19
:1007C3000875090078081202B67C087D917402123C
:1007D3000204AA82AB83120DBF74021201CF8510EB
:1007E30082851183AC82AD83EEFAEFFB1207FC74B2
:1007F300051201CF7F0302027674F31202108A0CF2
:100803008B0DECFEEDFFEEFAEFFB121008EAF50993
:10081300750800801B85080A750B00EE250AF58212
:10082300EF350BF583E0F9AA0CAB0D12077D050834
:10083300E508C3950940DE7F0602027674F81202CA
:1008430010EAFEEBFFEEFAEFFB12098379018E82C9
:100853008F83E0FCA3E0FDEEFAEFFB120F867F012E
:1008630002027674F512021074FB1201B9EAFEEB70
:10087300FF90910BC082C083851082851183AC8267
:10088300AD83D083D0827405120198EEFAEFFB1288
:10089300083F7508008020E824FFF8E934FFF9E8F1
:1008A3004970F479388E828F83E0FCA3E0FDEEFA81
:1008B300EFFB120F860508E508C394035006781072
:1008C300792780DB7508008033EEFAEFFB1209838A
:1008D30085080A750B00851082851183E582250A38
:1008E300F582E583350BF583E0F98E828F83E0FC97
:1008F300A3E0FDEEFAEFFB120F860508E508C394AB
:100903000540C674051201CF7F0402027674F51206
:10091300021074FC1201B9EAFEEBFF89088C0990FE
:100923009110C082C083851082851183AC82AD8310
:10093300D083D0827404120198EEFAEFFB1209837C
:1009430085090A750B00851082851183E582250AC6
:10095300F8E583350BF9E824FFF582E934FFF583E5
:10096300E025082480F98E828F83E0FCA3E0FDEE6E
:10097300FAEFFB120F8674041201CF7F0402027692
:1009830074F8120210EAFEEBFF8E828F83A3A3E0BA
:10099300FCA3E0FDEEFAEFFB120F83E9F8A2E740B8
:1009A300E87F0102027674F81202107C107D277E24
:1009B300007F008A828B83ECF0A3EDF0A3EEF0A31B
:1009C300EFF07F0102027674F7120210EAFEEBFFEA
:1009D3008908E50860047801800278008809E8A2A4
:1009E300E092B49091141202C9EEFAEFFB120B8D50
:1009F30074041201CFD2B59091141202C9EEFAEF2A
:100A0300FB120B8D74041201CFC2B5909114120224
:100A1300C9EEFAEFFB120B8D74041201CF7F0202B1
:100A2300027674F8120210EAFEEBFFD2B4D2B5904C
:100A330091141202C9EEFAEFFB120B8D740412012A
:100A4300CFC2B49091141202C9EEFAEFFB120B8DD0
:100A530074041201CFC2B59091141202C9EEFAEFD9
:100A6300FB120B8D74041201CF7F0102027674F81E
:100A7300120210EAFEEBFFC2B4C2B5909114120247
:100A8300C9EEFAEFFB120B8D74041201CFD2B590AD
:100A930091141202C9EEFAEFFB120B8D74041201CA
:100AA300CFD2B49091141202C9EEFAEFFB120B8D60
:100AB30074041201CF7F0102027674F8120210EA65
:100AC300FEEBFFD2B49091141202C9EEFAEFFB12BF
:100AD3000B8D74041201CFD2B59091141202C9EE9A
:100AE300FAEFFB120B8D74041201CFA2B4E433F5B9
:100AF300089091141202C9EEFAEFFB120B8D7404E5
:100B03001201CFC2B59091141202C9EEFAEFFB1293
:100B13000B8D74041201CFA9087F0102027674F8C9
:100B23001202108A828B83E9FF7E008012EFA2E714
:100B3300E433F9AA82AB831209CA0EEFC333FFEE83
:100B4300C3940840E8AA82AB83120ABD7F01020264
:100B53007674F81202108A828B83E9FF7E0075088F
:100B6300008010AA82AB83120ABDE9F8EEC33328D2
:100B7300FE0508E508C3940840E9EFF9AA82AB83B0
:100B83001209CAEEF97F0102027674F5120210749B
:100B93000B120204780812016D80089091187808EE
:100BA300120147E5084509450A450B70EE7F04022B
:100BB300027674F8120210EAFEEBFF8908EEFAEFF0
:100BC300FB1209A9E5088E828F83A3A3A3A3E508DB
:100BD300F0EEFAEFFB7F0102027674F31202108A41
:100BE300088B09890AECFEEDFF740D120204E0F58F
:100BF3000CA3E0F50D740F120204E0F50BAA08AB89
:100C030009120A2574FE550AF9AA08AB09120B2129
:100C1300E9850882850983A3A3A3A3E0602E14605A
:100C23000514600E8026EEF9AA08AB09120B21E920
:100C3300801AEEF8EFF9E4E9F8F9AA08AB09120B08
:100C430021E9EEF9AA08AB09120B21E9E50BF50B33
:100C5300780B1202BAAC0CAD0DA90AAA08AB0912A3
:100C63000C6F74011201CF7F0602027674F2120236
:100C730010EAFEEBFF890E8C0C8D0D750800EEFA61
:100C8300EFFB120A257401450EF9EEFAEFFB120B86
:100C930021E9740E120204E0F509E509C394024048
:100CA3003880297900EEFAEFFB120B54E9C0E08596
:100CB300080A750B00E50C250AF8E50D350BF9E874
:100CC30024FFF582E934FFF583D0E0F074012508B1
:100CD300F88808E8C3950940CA7901EEFAEFFB12D8
:100CE3000B54E9C0E085080A750B00E50C250AF5ED
:100CF30082E50D350BF583D0E0F0EEFAEFFB120A37
:100D0300717F07020276C0E0C0D0E8C0E0E9C0E02E
:100D1300EAC0E0EBC0E0C082C083C2AFA298400348
:100D2300020DA8909105E0F8A3E0F9909101E06825
:100D33007003A3E06970109090FFE0F8A3E0F990CE
:100D43009105E8F0A3E9F0E599C0E0909105E0F89A
:100D5300A3E0F5838882D0E0F0909105E02401F8C8
:100D6300A3E03400F9909105E8F0A3E9F090910332
:100D7300E0FA7B00909107E0F8790024FFF8E9346A
:100D8300FFF9C3EA98EB99A2D265D0335009909149
:100D930003E02401F0800C9091037400F09091041F
:100DA3007401F0C298D2AFD083D082D0E0FBD0E000
:100DB300FAD0E0F9D0E0F8D0D0D0E03274F71202E4
:100DC3001074FC1201B9EAFEEBFF740D120204A8C1
:100DD30082A9837402120204E8F0A3E9F085108269
:100DE300851183EEF0A3EFF07402120204858208EA
:100DF30085830978081202B68C088D0978081202D7
:100E0300B67404120204AC82AD837AB17B0F120272
:100E1300FA74041201CF8A08851082E0FAA3E0F580
:100E2300838A82E4F0C3EB9400A2D265D0335004EA
:100E3300AA088012851082851183E0F8A3E0F9E8FF
:100E4300C39EFAE99FFB74041201CF7F020202766C
:100E530074EF1201B97402120204AA82AB8312075F
:100E6300047C697DDB740A120204AA82AB83120F2D
:100E73003BD2AFD2AC79307402120204AA82AB83A4
:100E830012077D79787402120204AA82AB831207D7
:100E93007D740A120204AA82AB83120F6885108242
:100EA300851183EAF0A3EBF07C017902740212024C
:100EB30004AA82AB831209107401120204E0F974CC
:100EC30002120204AA82AB831207AA85108285113B
:100ED30083E0F97402120204AA82AB831207AA8088
:100EE300B0C082C0838A828B837902AA82AB8312C9
:100EF3000BB5AA82AB83D083D0822274F81202107E
:100F030074FE1201B975080278081202BA7401124C
:100F130002041202CD7968120BDD74031201CF852E
:100F23001082851183E054FFFAA3E0540FFB74028F
:100F33001201CF7F0102027674F7120210EAFEEB70
:100F4300FF8C088D09EEFAEFFB120EE48E828F837D
:100F5300A3A3A3A3A3E508F0A3E509F0EEFAEFFB2F
:100F63007F02020276C082C0838A828B83A3A3A3FB
:100F7300A3A3E0FCA3E0FD120EFED083D0822222C5
:100F8300020FA2EEC0E0E9FEF9120F93D0E0FE22B9
:100F9300C082C083E98C828D83F0D083D08222C04B
:100FA30082C0838C828D83E0F9D083D08222C08279
:100FB300C0838A828B83E0F8A3E0F5838882E9F01B
:100FC3008A828B83E02401FCA3E03400FD8A828BB8
:100FD30083ECF0A3EDF0D083D0822274F8120210D8
:100FE30074FE1201B9EAFEEBFF851082851183EED0
:100FF300F0A3EFF0851082851183AA82AB83790178
:1010030012102780E4C082C0838A828B838001A36D
:10101300E070FCE582C39AFAE5839BFBD083D08220
:0510230022020026225C
:000071018E
